:10000000981D0020AD1F0000FB5B0000811F000059
:10001000811F0000811F0000811F0000811F000060
:10002000000000000000000000000000351C00007F
:10003000811F000000000000DD1B0000811F000088
:10004000B51C0000B51C0000B51C0000B51C00006C
:10005000B51C0000B51C0000B51C0000B51C00005C
:10006000B51C0000B51C0000B51C0000B51C00004C
:10007000B51C0000B51C0000B51C0000B51C00003C
:10008000B51C0000B51C0000B51C0000B51C00002C
:10009000B51C0000B51C0000B51C0000B51C00001C
:1000A000B51C0000B51C0000B51C0000B51C00000C
:1000B000B51C0000B51C0000B51C0000B51C0000FC
:1000C000B51C0000B51C0000B51C0000B51C0000EC
:1000D000B51C0000B51C0000B51C0000B51C0000DC
:1000E000B51C0000B51C0000B51C0000B51C0000CC
:1000F000B51C0000B51C0000B51C0000B51C0000BC
:10010000B51C0000B51C0000B51C0000B51C0000AB
:10011000B51C0000B51C0000B51C0000B51C00009B
:10012000B51C0000B51C0000B51C0000B51C00008B
:10013000B51C0000B51C0000B51C0000B51C00007B
:10014000B51C0000B51C0000B51C0000B51C00006B
:04015000B51C0000DA
:1001540053B94AB9002908BF00281CBF4FF0FF312A
:100164004FF0FF3000F00CB8ADF1080C6DE904CE8F
:1001740000F008F8DDF804E0DDE9022304B070477C
:10018400704700BF2DE9F04786468C460846089E16
:10019400154674461946002B40F0C1808542B2FAD8
:1001A40082F245D94AB1C2F1200300FA02FC95401B
:1001B40094402EFA03F343EA0C0C4FEA154EA8B20E
:1001C400230CBCFBFEF80EFB18CC08FB00F943EA39
:1001D4000C43994528D9EB1808F1FF3704D2994507
:1001E40002D9A8F102072B44A3EB0903A4B2B3FB81
:1001F400FEFC0EFB1C330CFB00F044EA0344A0425B
:1002040014D92C190CF1FF3304D2A04202D9ACF159
:1002140002032C44241A43EA07401EB1D4400023AD
:1002240034607360BDE8F0874746DDE76346F1E775
:1002340092BB431B01214FEA154EAFB2200CB3FB16
:10024400FEFC0EFB1C330CFB07F840EA0343984505
:1002540061D9EB180CF1FF3004D2984502D9ACF106
:1002640002002B44A3EB0803A4B2B3FBFEFC0EFB79
:100274001C330CFB07F744EA0344A7424DD92C195D
:100284000CF1FF3304D2A74202D9ACF102032C448F
:10029400E41B43EA0040C0E7C2F1200395409440C8
:1002A40020FA03F12EFA03F34FEA154E9040AFB251
:1002B4000343B1FBFEFC0EFB1C10190C0CFB07F8EE
:1002C40041EA0041884522D969180CF1FF3004D273
:1002D400884502D9ACF102002944A1EB08019BB284
:1002E400B1FBFEFC0EFB1C110CFB07F743EA0143B8
:1002F4009F420ED9EB180CF1FF3104D29F4202D970
:10030400ACF102012B44DB1B41EA004193E7604658
:10031400E3E76146F7E76046A4E76346B8E783424C
:1003240006D916B9002108467CE7C6E900E0F9E7DA
:10033400B3FA83F78FB9834201D3724508D8BEEB71
:10034400020460EB030301209C461EB9002169E707
:100354003846FAE7C6E9004CF8E7C7F1200CBB4081
:100364000EFA07F522FA0CF42EFA0CF1BA401C43EB
:1003740020FA0CF3B8404FEA144901431FFA84FEF3
:10038400B3FBF9F809FB18300B0C08FB0EFA43EA2F
:1003940000439A4540D9E31808F1FF3004D29A4546
:1003A40002D9A8F102002344A3EB0A0389B2B3FBE8
:1003B400F9F809FB183308FB0EFE41EA03418E45A8
:1003C4002CD9611808F1FF3304D28E4502D9A8F163
:1003D4000203214443EA0040A1EB0E01A0FB029872
:1003E4004145CE46434602D306D14D4504D2013899
:1003F400B9EB020E68EB0403002EA7D0B5EB0E0296
:1004040061EB030101FA0CFC22FA07F3F9404CEA10
:100414000303C6E9003199E74046C5E74346D9E7F7
:10042400F0B589B001AE3546441E811D14F8010FA4
:1004340005F03CFA8C4205F8010BF7D10025174B67
:1004440003AC18689A889B7903908DF81230144B8A
:10045400ADF810209F6814F8013BCDF814D08DF846
:10046400003016F8013B8DF80130022306938DF815
:100474001C30682301220A48D7F808C005A9E047C0
:1004840038B168219DF80020064805F023FA09B028
:10049400F0BD0135072DDED1F9E700BFF06A000099
:1004A400146800003C6D0000F0B5002401271D4BCA
:1004B40006469A8818689B7989B08DF806301A4BDD
:1004C40000909D68ADF804200DEB0403CDE90237DC
:1004D40000238DF81030A319CDE9053707238DF8D3
:1004E4001C30682302221048D5F808C002A9E0474E
:1004F40058B104F120030DEB0304682114F8202CF7
:100504000A4805F0E7F909B0F0BD0134072CDBD146
:10051400711E063611F8010F05F0D1F9B1420870C9
:10052400F8D1F0E7F06A000014680000726D000072
:1005340030B589B01F4C204605F0A1FF30B92168C1
:100544001D4809B0BDE8304005F0C4B93B23002480
:1005540004948DF8113040F21773ADF812304FF453
:100564000773ADF81430172304A88DF81630FFF77D
:1005740057FF124D06A80694ADF81C408DF81E4096
:10058400FFF792FF9DF81E30284602939DF81D3018
:100594009DF8192001939DF81C309DF81A100093C2
:1005A4009DF8183005F096F900214FF4004004F04E
:1005B4000BFEDFE714680000AB6D0000C66D0000A1
:1005C400014B1B68184700BF00000020014B186056
:1005D400704700BF0000002007B50B46002102460B
:1005E4000091034800F014F903B05DF804FB00BF68
:1005F400C50500002DE9F047058B04462807904601
:1006040011D4022905F0070540F0CD80204605F0FD
:1006140078F978B10138218B042811D8DFE800F08B
:10062400C3106D85950001290CBF45F0100545F0F8
:100634002005258388F31188BFF36F8FBDE8F08709
:1006440001F0070AAA4500F0A6800027B9463E46F5
:10065400A368002B00F0BD8041F00801218388F3DA
:100664001188BFF36F8FA168002900F0BB800D686B
:10067400002900F0B780334652462046D1F8048062
:10068400C047002D76D02B6829461D46F0E701F0BF
:1006940007035A1F012A1BD8002221F00701062B49
:1006A400276889B2C4E9002209D13B4603E0628B82
:1006B400013262831B68002BF9D141F0020120460C
:1006C400218305F01EF900287BD041F0200177E05A
:1006D400042B0AD121F0070189B22046218305F0B9
:1006E40010F910B141F020012183218B01F0070A98
:1006F400AA4550D00027B946AAE7236921F007018B
:1007040041F00601062DD3F8009021832DD1B9F1D3
:10071400000F40D041F00801218388F31188BFF312
:100724006F8F20463949C84729E021F00701236922
:1007340041F0040189B2042DD3F804902183E6D05A
:1007440000274FF0040A3E4682E721F0070123699F
:1007540041F0050189B2052DD3F808902183D6D044
:1007640000274FF0050A3E4672E700274FF0060ABD
:100774003E466DE72B4687E7B9F1000FD1D14FF024
:100784002003EFF3118883F31288BFF36F8F238B59
:1007940023F008032383258BEA062ED525F01003C6
:1007A400238305F007056669218B002EBFF66FAF22
:1007B40000232768C4E9003321F0070141F0010157
:1007C4002183218B4FF0000901F0070AAA457FF429
:1007D4003FAF002F9BD041F00801218388F311889B
:1007E400BFF36F8F002FC7D03D683946334652465A
:1007F400204605F0B2F82F46F4E7AB067FF51AAFB2
:1008040025F02003238305F00705FFE68B5900003C
:100814002DE9F04F824616461C4600259FB00391F1
:10082400307810B9284600F089BD731C252806933A
:1008340006D00399D0470028C0F2808501352BE209
:100844001822002110A805F02CFA7378252B7DD0EE
:10085400002398469E469C461F46701C014610F88D
:10086400012B2B2A00F0A18000F29880202A00F0AE
:100874009F80232A00F09F802BB19DF8483043F0DD
:1008840040038DF84830B8F1000F05D09DF848308A
:1008940043F020038DF84830BEF1000F05D09DF8D9
:1008A400483043F010038DF84830BCF1000F05D0F8
:1008B4009DF8483043F008038DF848302FB19DF877
:1008C400483043F004038DF848309DF8483003F075
:1008D4004400442803D16FF386138DF848309DF803
:1008E40048302A2A43F080038DF848307FD19DF8A0
:1008F40049204B1C42F001028DF849201A782E2A17
:100904000CBF012100219DF8492061F341028DF8BB
:10091400492078D15A782A2A6ED000224FF00A0C46
:100924000133194611F8010BA0F13007092F40F2E9
:10093400AF809DF848101492C1F3400040EAD27091
:100944000A4660F341028DF848205CE0B21C06922E
:100954008DF84B309DF84930DF0740F1548154F84D
:10096400042B002A049208DA9DF8482042F004027D
:100974008DF84820049A52420492580740F14B8162
:1009840054F8047B002F80F24A819DF849306FF3BC
:1009940041038DF849304FF0FF3740E12D2A0DD047
:1009A400302A7FF469AF012358E74FF0010C55E773
:1009B4004FF0010E52E74FF001084FE701274DE7D2
:1009C40003460EFB0272303A184610F8017BA7F179
:1009D400300CBCF1090FF3D999428FD09DF848101F
:1009E4001392D20F62F341018DF8481086E70B464B
:1009F40000224FF00A0EE7E79DF84920023342F047
:100A040004028DF849201A786C2A61D045D8682AE6
:100A14004BD06A2A65D04C2A6BD013F8012B782A64
:100A240006938DF84B2000F2AD806D2A6ED8692AAA
:100A340000F2A880572A00F28880412A04D0A2F14B
:100A44004503022B00F29E8004219DF84A3002F0F7
:100A5400DF02A2F1410861F30203D8F100029DF81C
:100A6400491042EB080262F3C7110A068DF84A30B6
:100A74008DF84910CBB200F1C48003F07802182A33
:100A840040F0AE806FF3C6038DF8493000239DE03B
:100A94000CFB02020B46303A43E7742A25D07A2A2B
:100AA400BBD106219DF849200CE05A78682A9DF8AC
:100AB400492006D1012161F3C6028DF84920023391
:100AC400ABE7022161F3C6028DF849200133A4E7A4
:100AD4005A786C2A9DF8492001D10421EBE70321BF
:100AE400F0E705219DF84920ECE707219DF849200E
:100AF400E8E7BDF8482022F4F04222F0020242F472
:100B0400804242F00202ADF84820DFE76E3AD3B2E9
:100B140001229A4040F282431A429DF8493038D16A
:100B240012F0240F60D1D1072CD503219DF84A205F
:100B340003F07803A3F1400C61F30202DCF100033B
:100B44008DF84A2043EB0C0340E00120A2F1580148
:100B5400C9B200FA01F111F4624F7FF475AF40F6A7
:100B6400010319429DF8493019D111F4043F09D009
:100B74009DF84A2060F3020203F07803402B8DF8BD
:100B84004A2083D19DF8483043F001038DF8483062
:100B94007CE702219DF84A2061F30202ECE702207F
:100BA4009DF84A1003F0780360F30201402B8DF89E
:100BB4004A1002BF9DF8481041F001018DF8481019
:100BC400632A7FF463AF003B18BF01239DF84820DC
:100BD400C2F340010B4363F341028DF84820B9E6A8
:100BE40013F0380FCED151E703219DF84A2013F0BA
:100BF400780F61F3020214BF012300238DF84A2009
:100C0400E4E70123E2E79DF94820002AACBF4FF056
:100C1400FF32139AB0E699077FF5BDAE149F002307
:100C2400CDE913339DF84A309DF8491003F00702CB
:100C3400042A07D18A0705D49DF94920002AACBFAC
:100C440006270D2703F00703012BC1F3C30133D19A
:100C5400CB1E042B04D8DFE803F0214646212100F3
:100C6400236801294FEAE372CDE910321CD19DF9C2
:100C74004030DA17CDE9103204349DF84830079338
:100C84009B0750D032465046069B039904F087FFD9
:100C94000028C0F253830544069EC1E554F8043B82
:100CA400DA17CDE91032E8E70229E5D11AB243F3A5
:100CB400C033CDE91023DFE7022B24D1CB1E042B54
:100CC40004D8DFE803F018101018180001294FF0B9
:100CD400000254F8043B14D00229CDE91032CCD1DF
:100CE4009BB21093C9E7073424F00704F4E8022305
:100CF400CDE91023C1E754F8043B1093002311936A
:100D0400BBE7DBB2CDE7042B08D1073424F007049A
:100D1400D4E900230834CDE91023AEE7032BACD18A
:100D240054F8043BDDE79DF84BB0BBF1780FB3D822
:100D3400BBF1570F49D8BBF1250F00F09180BBF1EF
:100D4400240FA9D9BBF1410F03D0ABF14502022A0C
:100D5400A2D8DDE91012002AC0F23681079B1807D9
:100D640000F13581C3F300194FEA4919C2F30A505F
:100D7400C2F31302002840F02D8151EA020614BF89
:100D840001260026D20242EA5152C902BBF1460FA3
:100D940040EA010E42EAE07C08BF4FF0660B5EEACF
:100DA4000C0CCDE90C1200F09881002E40F0448127
:100DB4000D9AA0F2FE3842F000420D920020DDE9C7
:100DC4000C1206464FF0050C50E1ABF15802202AF4
:100DD4003FF662AF01A050F822F000BF6B0F000095
:100DE4009D0C00009D0C00009D0C00009D0C00005B
:100DF4009D0C00009D0C00009D0C00009D0C00004B
:100E0400570D00009D0C0000EF0E0000030F0000C2
:100E1400570D0000570D0000570D00009D0C0000F9
:100E2400030F00009D0C00009D0C00009D0C0000B1
:100E34009D0C0000A50F00006B0F0000710F000057
:100E44009D0C00009D0C00006B0E00009D0C00002A
:100E54006B0F00009D0C00009D0C00006B0F000048
:100E640058460399E6E4002F109E3ADB3946304693
:100E740004F003FF3718002E3FF40EAF4FF00009C3
:100E84009DF84A3013F01002059200F04C820230B3
:100E940013F04003DDF84C80089318BF149B4044C2
:100EA40018BFC018049BCDF81C80002B40F3568259
:100EB4009DF848201B1A04935307C2F3800B00F1DA
:100EC4004D82500640F13D82B9F1000F07D04846EB
:100ED4000399D0470028C0F23182D9460135302227
:100EE40030E2304604F0C2FEC4E7109B4FF0000924
:100EF40001208DF85C300DF15D0717AEC0E7079B4C
:100F04001E0754BFC3F300194FF02B09DDE910236A
:100F140058BF4FEA4919002B06DA4FF02D09524207
:100F240063EB4303CDE91023DDE910010DF17503F3
:100F3400009312AA17AB04F0ECFD0646002F0CDB5D
:100F44009DF848200DF175039B1B6FF386129F4299
:100F54008DF8482001D9FB1A1393002E3FF49CAE60
:100F64000DF1750756E04FF00009DDE710980028F1
:100F740000F0D4810DF175030093002117AB12AA80
:100F840004F0C7FDBDF84A30064603F0EF0343F40E
:100F9400F04343F010034FF00009ADF84A30CDE7B9
:100FA400109B07293FF678AEDFE801F00C04060C2D
:100FB40008080C0C1D706FE61D806DE6EA17C3E986
:100FC400005269E61D6067E64FF02D09CEE64FF04A
:100FD4002B09CBE640F2FF76B0422AD10A43ABF1AB
:100FE40041031ED11A2B35BF492369234E216E219B
:100FF40034BF462266228DF85C309DF848308DF867
:101004005D106FF386138DF85E208DF848300DF176
:101014005F0717AEB81BB9F1000F3FF431AF0130D1
:101024002EE7192B8BBF6E234E23612141211A46D3
:10103400E1E70026A6E6013849185241002AFADA07
:10104400CDE90C12B4E6490841EAC2715208B2F182
:10105400333F404608F10108F5D200F102080120AF
:101064000CFB02FEA1FB0C12013E724418F1020FAC
:10107400E9DB08B1CDE90C12DDE90C21B8F1000F70
:101084002EDCC8F1040008F11C08A0F1200CC240B9
:1010940021FA00F301FA08F80BF0DF0042EA080233
:1010A40021FA0CFC472842EA0C02089338D1F31CBD
:1010B40001DBB7422ADAABF10203002F5FFA83FBAC
:1010C4007DDD9DF84800013F800678D43B1E18BFA3
:1010D4000123059307F101082CE04FF000086DE6A9
:1010E400023241F100010CA808F1FF380136CDE9C4
:1010F4000C2104F0DFFCDDE90C21921849410029A0
:1011040008F1FF38F9DACDE90C21B5E79DF848304C
:10111400BF1B990651D43B1E18BF0123059304E05D
:101124000023BBF1660F0593D4D117EB06084FF0EB
:10113400660B46D4B8F1100FA8BF4FF0100810206A
:101144004FF000610B900020CDE90E01DDE90E03A4
:10115400B8F1000F38D10899121841EB0301B1F12D
:10116400805F3FD2CDE90C21079BBBF1660F03F0F2
:10117400200240F0B280002E3FDC30218DF85C105C
:10118400002A63D1002F40F3A8812E228DF85D2020
:1011940086B17242BA42A8BF3A46002A1392A7EB1C
:1011A4000207D4BF002201229DF84A1062F34511C0
:1011B4008DF84A100DF15E0837E00023AEE70023F6
:1011C40087E74FF00008BAE7400840EAC3705B08BD
:1011D400CDE90E030EA8099208F1FF3804F06AFC69
:1011E400099AB3E7520842EAC1720CA84908CDE94A
:1011F4000C21013604F05EFCB6E70DF15C080B9996
:10120400002909DD0BA90CA8079204F06BFC013E30
:10121400079A08F8010BF2D113969AB9002F40F3FC
:101224005A812E2108F8011B0026002F17DD0B9A86
:10123400002A14DD0BA90CA804F054FC013F08F8A3
:10124400010BF2E72E2208F8012BEDE72E228DF890
:101254005D20002EAED0002F9BDC0DF15E08059BB7
:10126400002B4ED1149747460BF0DF02452A23D1B9
:10127400002EBABF76422D232B23632EC8BF6421D0
:101284007B70C4BFB6FBF1F301FB13664FF00A0198
:10129400C8BF03F13000B6FBF1F3D2BFBA1CFA1C8D
:1012A400B87087F800B0174603F1300001FB1363F0
:1012B400303307F8020B5370139B002B2CDC149B68
:1012C400002BD4BF002301239DF84A2063F3861228
:1012D40000238DF84A203B709BE60BA90CA80792CB
:1012E40004F000FC079A30288DF85C0018BF06F162
:1012F400FF3612B9002F40F3F0802E228DF85D20C6
:1013040058E7474617F8012C08F1FF38302AF8D07F
:101314002E2A08BF4746A7E70123D5E7704F814629
:101324007E1F0520ACE51A0748BF0130B0E5104622
:1013340009920399D0470028099A05DA1FB0BDE83D
:10134400F08F2022DDF810B0594600290BF1FF3B45
:10135400EDDC049BCDF810B02B445D1AB9F1000FFD
:1013640005D048460399D0470028E7DB0135089BA0
:10137400002B75D09DF94930002B28DBB3469BF830
:101384000000D946A0F13003092B0BF1010B3FD922
:101394009DF84A30AE1B99064E4407D44246002AB3
:1013A40008F1FF3839DC079B33449E1A99F8000092
:1013B4002E280AD10399D0470028BFDBB8F1000FCB
:1013C40006F101062FDC09F101094D4635E0B1466D
:1013D40099F80000C846702809F1010913D1AE1B21
:1013E400149D46443544AB1B002B31DC3B4642463E
:1013F4005046039904F0D3FB00289FDB3044049E3D
:101404000546064462E00399D0470028E0DA95E7F0
:101414000399D0470028B2DA90E730200399D047E7
:101424000028BBDA8AE730200399D04708F1FF3857
:10143400C2E70399D047002880DB2878A846A0F1AA
:101444003003092B05F10105F3D9A6EB0906C7E71B
:1014540030200399D0470028FFF670AF0136C2E769
:101464009DF84A30DA0601D41B0706D530200399CB
:10147400D0470028FFF662AF0135059B3BB10399C5
:101484009DF84B00D0470028FFF658AF0135A8441B
:1014940006E030200399D0470028FFF64FAF01350E
:1014A400A8EB0503002BF4DC3B4632465046039977
:1014B40004F075FB0028FFF641AF28449FE7202085
:1014C4000399D0470028FFF639AF0135731B002B71
:1014D400F5DCFFF7E1BB1646C1E60DF15D08BEE69B
:1014E400FB6D0000044608B54FF02002EFF31183B2
:1014F40082F31288BFF36F8F01F0C2FF204600F021
:1015040083FD034804F0E6F900F0C0FAFCE700BFED
:10151400FC6D0000054B03EB8000D0F8003223F093
:10152400E04343F04053C0F8003270470025845034
:1015340010B54FF02003EFF3118483F31288BFF347
:101544006F8F01220C4B0D49C3F8002502230020A4
:10155400C1F8D036FFF7DEFF1046FFF7DBFFC1F816
:101564000427C1F80429C1F8002B84F31188BFF3C0
:101574006F8F002010BD00BF0010005000400050CD
:10158400052370B5144D154E2C780134B4FBF3F3D8
:1015940003EB8303E41A04F038FD114A137823B1F2
:1015A40056F82430C01A072814D94FF05023D3F822
:1015B400141141B10021C3F81411D3F814312C7063
:1015C4000CB9012313702C7804F01FFD46F8240095
:1015D400012070BD0020FCE72D0C0020F802002043
:1015E4002C0C002048B1054B054A1B68B3FBF2F3F1
:1015F4005843044B43F00103184770477000002020
:1016040040420F00006B0000062807D10122044B62
:10161400C3F80025BFF34F8F20BFFDE7704700BF1D
:101624000040005001F056BF2DE9F84305464FF045
:101634002003EFF3118683F31288BFF36F8F4FF00B
:101644000C090D4B0D4F1C68DFF834802CB986F360
:101654001188BFF36F8FBDE8F883D4E90123002D0F
:1016640018BF13462BB198F8102009FB02F2B85C9E
:1016740098472468EAE700BF2403002018030020E9
:10168400200A0020012270B5164B1C7C04F01F03B5
:101694009A40D043144B610903EB8103D3E8EF1F55
:1016A40001EA0005C3E8E65F002EF7D10A4213D031
:1016B4000E4B0F4D8BB10C236343EA185178E85C51
:1016C40004F085FA0020FFF7AFFF0C235C430023EE
:1016D4002A192B51C2E9013370BD83F31188BFF37A
:1016E4006F8FEFE7200A00202C030020D35B00005B
:1016F400180300202DE9F041324B07461D7C4FF0C2
:101704002003EFF3118883F31288BFF36F8F0C2447
:101714006C432D4B2D4E195D1A19002947D007CA69
:1017240006EB040C8CE8070000221A5588F3118894
:10173400BFF36F8F0C236B43F05CF218A8B37B1CD0
:1017440010D04FF400400021D2F808C0204C0023F0
:10175400ECFB00411F4A2046FEF7FAFC0121381A2F
:1017640001F052FE03F076FC0120FFF75DFF1A4BF7
:101774006A0903EB8203012205F01F018A40D3E8C2
:10178400EF0F1043C3E8E10F0029F8D1134B3BB12D
:101794000C2303FB05F033185978305CFFF734FF52
:1017A400FFF770FF03F06AFC0120BDE8F0810146F9
:1017B400284600F015F80028B8D007C8344484E857
:1017C4000700B3E7200A00200C03002018030020C0
:1017D4003F420F0040420F002C0300200D16000072
:1017E4002DE9F04F85B00E4603A900F043F84FF4FD
:1017F400004704464FF0000B1B4B039DD3F800A099
:10180400431E1BB203EB4303DFF8608005EB830543
:1018140024B9A146484605B0BDE8F08FC4465946F0
:1018240068680023E0FB07C1114A6046FEF790FC9C
:10183400C44659460190A8680023E0FB07C10C4A3E
:101844006046FEF785FCBAF1FF3FA94601D0824508
:1018540005D9731CDED0019B1844B042DAD9013C8F
:10186400A4B20C3DD4E700BF040000203F420F00A7
:1018740040420F0008B9024B0B600020704700BFC4
:10188400086B0000014803F0CFBE00BF086B0000E6
:1018940038B5044618B90F4B0F485B689847616820
:1018A400B1F5683F0FD0B1F5680F0CD00B4DA942CC
:1018B40009D011F4686107D02146094804F02DFECF
:1018C40000232360656038BD1422206804F0E9F920
:1018D400F8E700BFFC0000202C6E00002C5F5CA920
:1018E4003008002008B560B34368B3F5683F0ED0F4
:1018F400B3F5680F18D0144A934220D000684FF013
:10190400FF324FF0FF3303F09FF858B115E0012286
:101914000368D3E8EF1F002903D1C3E8E02F0028B0
:10192400F7D10AD1002008BD0368084A1B7803F5E3
:10193400807352F82330002BF4D00548F3E70548B0
:10194400F1E76FF4E040EEE72C5F5CA90000035080
:10195400E98FFFFFEA8FFFFF08B520B34368B3F5B3
:10196400683F09D0B3F5680F13D0114A93421DD0D4
:10197400006803F0E3F814E000220368D3E8EF1FE3
:10198400012903D1C3E8E02F0028F7D109D0094881
:1019940008BD00210368084A1B7803F5807342F8E8
:1019A40023100020F4E76FF4E040F1E70348EFE789
:1019B4002C5F5CA9E98FFFFF00000350EA8FFFFF53
:1019C40010B5044618B91D4B1D485B6898476368F9
:1019D400B3F5683F2FD0B3F5680F2CD0194A934262
:1019E40019D1236803BB4FF0FF324FF0FF33214678
:1019F400154802F053FF08B923681BB90F4B13486D
:101A04005B68984714220021206804F04AF94FF4D7
:101A14006863636008E0B3F5683F0DD83A2B03D0E0
:101A240040F6BA629342DED1206804F0B4FD6368E4
:101A340043F03A03636010BD054AF3E7FC0000205D
:101A44002C6E00002C5F5CA930080020526E000050
:101A54003A00003A08B5064940231422054804F028
:101A64004EFDBDE808400449044803F04FBE00BFE2
:101A74003003002030080020106B0000246B0000AD
:101A8400014910220A60704710ED00E072B6404030
:101A940080F31188BFF36F8F01B5FFF771FD002844
:101AA40002D0BFF34F8F30BFBDE8014062B6BFF331
:101AB4006F8F704772B6494081F3118801B5FFF703
:101AC4005FFD002802D0BFF34F8F20BFBDE8014067
:101AD40080F3118862B6704740B2002807DB012307
:101AE4004109034A00F01F00834042F82130704747
:101AF40000E100E040B200280CDB01220649430962
:101B040000F01F008240203341F82320BFF34F8FA1
:101B1400BFF36F8F704700BF00E100E0054B42093F
:101B240053F82220012300F01F0003FA00F01040B4
:101B3400704700BF00E100E040B2002801F101015C
:101B4400ACBF00F16040064B4FEA4111C9B2ABBFD4
:101B540000F5614000F00F0080F80013195470473D
:101B640014ED00E030BFFFF7FDBF00BF0B4A08B51E
:101B74000B4B22F07F029A60BFF34F8FBFF36F8F3E
:101B8400D3F8882022F47002C3F8882002F0C6FD3E
:101B940003F09AFB00F0FCF902F000FE00000000E4
:101BA40000ED00E0094A0A49936809685867996793
:101BB40008494B6843F080534B60002383F311883A
:101BC400BFF36F8F9368986F704700BF200A00209F
:101BD400946C000000ED00E013498A684FF0300077
:101BE4001044EFF3098C80E8F01F202080F3128862
:101BF400BFF36F8F0D4F4FF000668A698A603E60B5
:101C0400506F0023536780F3118802F1300090E88D
:101C1400F01F8CF3098802F1000004B503F0F2FF11
:101C2400BDE8044070470000200A002004ED00E0F5
:101C34001EF0040F0CBFEFF30880EFF309808169F5
:101C440011F8021C0229FFD001B503F0CCFF01BD3D
:101C540042F8203C009B0B4942F81C3C019B21F0BC
:101C6400010142F8183C029B42F8081C42F8143C5B
:101C74004FF0807342F8043C0023203A0265436726
:101C8400704700BFF3580000084B9860436E83F31D
:101C94000B88104681F30988002163B681F311880B
:101CA400BFF36F8F0022002303F021FE200A0020DF
:101CB40001B572B60B4A506900281EBF002151615C
:101CC40004F05AFC62B6EFF30580A0F110004FEA6D
:101CD400C0000549014409C99847BDE801400349CA
:101CE40008470000200A00202C680000F51C0000B2
:101CF400044B99689869884203D003494FF0805295
:101D04000A607047200A002004ED00E0154B9A6A2F
:101D140012F0007F9A6A14BF1E201D2012F0807FEB
:101D24009A6A18BF1F2012F4801F9A6A18BF0220F3
:101D340012F4002F9A6A18BF212012F4802F9A6A95
:101D440018BF222012F4003F9A6A18BF232012F40D
:101D5400803F9A6A18BF24206FEA02426FEA124257
:101D64009A62704700ED00E010B5194B0246986A7C
:101D74009C6A10F4805F14BF1720162014F4006FBF
:101D84009C6A18BF1820A40509D5986B986A0004AA
:101D940004D51AB19A6A22F400429A6219200C4BB3
:101DA4009A6A12F4806F9A6A18BF1A20D2050CD46A
:101DB4009B6A13F4005F18BF1C20054A936A43F41E
:101DC4007F43936200230B7010BD1B20F5E700BF17
:101DD40000ED00E010B51C4B0246986A9C6A10F0B6
:101DE400100F14BF1120102014F0080F9C6A18BFA4
:101DF4001220A40709D5586B986A000604D51AB1B5
:101E04009A6A22F080029A6213200F4B9A6A12F0A7
:101E1400010F9A6A18BF142012F0200F9A6A18BF93
:101E24001520D40658BF9B6A074B9A6A920642BF94
:101E34005A6A22F400525A629A6A42F0FF029A6283
:101E440000230B7010BD00BF00ED00E070B5444BE3
:101E540006465B6800258AB0C3F3080385F311883E
:101E6400BFF36F8F02F07F40B0F17F4F11D102F0CA
:101E74000C0008280DD010074CBF0E460125002287
:101E8400033B8DF80720032B05D8DFE803F01E5C25
:101E940060592E46F3E700249DF807309BB92022B1
:101EA400314602A803F0F2FE099B002D53D0C3F380
:101EB400080222B96FEA53236FEA432309932046A9
:101EC40002A903F08EFE0AB070BD254BDA6A9107B1
:101ED400E1D4DA6A002ADEDBDA6A5200DBD55A6919
:101EE400B16942F480725A61BFF34F8FBFF36F8FB1
:101EF4005A6931F8021C22F480725A61BFF34F8F81
:101F0400BFF36F8F4DF60272914209D09A6AD2B232
:101F140042B101200DF10701FFF75CFF0446BBE766
:101F24003468B9E79A6A12F47F4F05D001200DF1A5
:101F34000701FFF719FFF1E79B6AB3F5803FAAD3C6
:101F4400FFF7E4FEEAE700200DF10701E4E70020D3
:101F54000DF10701EDE723F4FF7323F00103ADE76F
:101F640000ED00E0044B5A6942F010025A615A69CC
:101F740042F480625A61704700ED00E0EFF308809C
:101F8400EFF3098101B57246FFF760FF01BD00BFA1
:101F9400002320210348C2180133452B82F8001383
:101FA400F9D1704700E100E0002080F31488BFF30A
:101FB4006F8F002080F30A8880F30B88FFF732FBD1
:101FC40000200E490860BFF34F8F0D4880F3088846
:101FD40000F03EF8202080F311880A484FF4006195
:101FE400401880F30988EFF314800221084380F33A
:101FF4001488BFF36F8FFFF7B9FD000094ED00E084
:10200400981D002058100020BFF34F8F0549064B40
:10201400CA6802F4E0621343CB60BFF34F8F00BF82
:10202400FDE700BF00ED00E00400FA0500231846B8
:102034000649D1F89020C2F30722934200DB70478F
:10204400C1F89830C1F8A0000133F6E700ED00E0D4
:1020540010B572B6002484F31388FFF7E7FF234614
:102064004FF0FF300C4A03F120010133102B42F8EA
:102074002100F8D100234FF0FF30074A03F160013B
:102084000133102B42F82100F8D162B6BFF34F8F11
:10209400BFF36F8F10BD00BF00E100E0084B9B68E9
:1020A40083420BD1EFF3058343B1064B5A6842F0E8
:1020B40080525A605A6A22F400425A6203F0A4B869
:1020C400200A002000ED00E01FB5094C094A234610
:1020D4000121094800F0EAF800230393074B01218A
:1020E400E41A01A80193029400F0EAF804B010BDC8
:1020F4000000072000000020346B0000B80100201D
:1021040010B50C7A0B6804F01F0223F01F031A4366
:10211400CB68640923F01F03054943EA440343F0F1
:102124000103C1F89800C1F89C20C1F8A03010BD8B
:1021340000ED00E02DE9F04F0F46144606464FF03F
:1021440000084E4D85B0B84580F29480D6F80490CE
:10215400B9F1000F36D0B9F11F0F40F2898019F0A0
:102164001F0F40F08580D6F800A01AF01F0F7FD112
:10217400504603F04BFD834609EB0A00013803F097
:1021840045FD834574D11BF1160F71D05C456FDD9D
:10219400C5F898B0D5F89C10C5F898B0D5F8A0301B
:1021A40021F01F0143F01F0AD6E900321A44994274
:1021B40002F1FF391ED1CA4508D131465FFA8BF0CE
:1021C40003F02DFD08F101080C36BCE73146C5F8D3
:1021D40098B0D5F89C3022F01F0203F01F0313437C
:1021E400C5F89C30E0B203F01AFD10F1160F3FD091
:1021F400441CE7E7C5F898B0D5F8A020013B23F0CC
:102204001F0302F01F021343CA453146E0B2C5F86A
:10221400A030E8D003F003FD10F1160F28D0C5F864
:1022240098B0D5F89C209DF808300AF1FF3A62F383
:1022340004038DF80830D5F8A0309DF808205B0819
:1022440063F347128DF80820D6E900321344009353
:1022540023F01F03411C5344A3EB0903C8B223F02A
:102264001F030728039303D86946FFF749FFBFE715
:102274006FF01504204605B0BDE8F08F00ED00E0D6
:102284000522044BC3F89420BFF34F8FBFF36F8F25
:10229400704700BF00ED00E0BFF35F8F0022024BE8
:1022A400C3F89420704700BF00ED00E010B5034C64
:1022B4002278FFF73FFF207010BD00BF2E0C0020D6
:1022C4002DE9F74F294D8A4606464FF00008AB46E4
:1022D400274FD0451BDAD6F80490B9F1000F3FD050
:1022E40031680846019103F091FC0199044609EB19
:1022F4000100013803F08AFC84424FF014021D4BA4
:1023040008D002FB08F36FF015024BF8032003B06A
:10231400BDE8F08F14F1160F2C60F8D01978A142A3
:10232400F5DD02FB08B0C7F89840C7F89840D7F825
:102334009C4000F10801007B64F304000871D7F8A5
:10234400A0000C79400860F347140C71D7F89C1076
:1023540021F01F016960D7F8A01021F01F01296145
:1023640008F1010814350C36B3E700BF4C0800200F
:1023740000ED00E02E0C002038B50E4D2C68082C22
:1023840015D80020FFF788FF0B4B0C4AC3F8C02078
:10239400844205D10A4B00201C70FFF771FF38BD41
:1023A400696801EB0011FFF7ABFE0130F0E74FF075
:1023B400FF30F4E7406B000000ED00E0AAFF4400AA
:1023C4002E0C0020014B1860704700BF280000202D
:1023D400084B70B5C31A0D4607499B100446594370
:1023E4004022064803F085FC2B4601462046BDE802
:1023F4007040184774080020B76DDBB6B46700005E
:10240400402373B50B4C0093041B0B460D460A493D
:10241400A41061430646094A094803F097FC011ECB
:1024240005DA30462B4602B0BDE87040184702B0CA
:1024340070BD00BF74080020B76DDBB6BD5D000041
:10244400B46700002DE9F843002201210646052067
:10245400FFF772FB114801F057F9114B984219D15B
:1024640003F0ACFE00244FF01C090C27DFF8348085
:102474003569414609FB045003F093FA002807DB51
:10248400012307FB04551C44042CAB67F0D1002046
:10249400BDE8F8836FF00400FAE700BFE124000010
:1024A4000000AD0B686B000001460C2300224B4377
:1024B40070B50848C41878331844D4E91C56226708
:1024C40003F004FC2DB132462B46BDE870400248AF
:1024D400184770BD74080020B4670000052811D89F
:1024E400DFE800F0030E10100C0A074B986F10F091
:1024F400070007D1FFF7D8BF0220FBE70320F9E765
:102504000120F7E7704700BF7408002008B54FF0BA
:102514002003EFF3118183F31288BFF36F8F124A04
:10252400136843F002001060DA0708D481F31188BD
:10253400BFF36F8FBDE80840012003F051BE4FF098
:102544005023D3F80C24D3F80C34D307EED5074822
:1025540003F0BCFB81F31188BFF36F8FBDE8084023
:102564000020FFF7A1BF00BF14090020EC080020E1
:102574001FB500220123CDE902236B46084ACDF89A
:1025840000D0CDF804D003F010FC002805DB4FF494
:1025940080420023684602F02DFB05B05DF804FB81
:1025A400F35D000010B54FF02003EFF3118483F3C3
:1025B4001288BFF36F8F074A136823F00201DB0709
:1025C400116002D4012003F06AFE84F31188BFF382
:1025D4006F8F10BD140900202DE9F0410122074638
:1025E4003749D1E8EF3FC1E8E02F0028F9D133B9EA
:1025F400344935484B60CB608A6003F0E5F97B1EB3
:10260400012B2BD8012F07D14FF05023D3F81C34C2
:1026140003F00303022B21D003F0A8FF0546F8B909
:102624002A4B1B78E3B14FF0502302220646C3F82D
:1026340008234FF05024DFF89880D4F81834D4F8E5
:102644001824D20316D503F00303022B01D0012F63
:1026540010D175B386F31188BFF36F8FBDE8F08195
:102664004FF02003EFF3118683F31288BFF36F8FCB
:102674000125DEE7C5B13046FFF71CFAD4F818355A
:10268400DBB2012BD9D1D4F80421002AD5D0002201
:10269400C4F80421D4F804210222C4F81825202205
:1026A400C8F88021A360C8E70021212002F08CFD36
:1026B400E4E74FF050230222C3F80423CEE700BF1F
:1026C40070080020600800209008002052100020AC
:1026D40000E100E010B5044C2046FDF777FF2046EA
:1026E400FFF770FE002010BDF1260000F7B5044688
:1026F4000325134E8DF80700EFF311874FF02001E7
:1027040081F3118801220DF10701002001F09CFFE3
:1027140087F3118820B101233370204603B0F0BD44
:102724003378002BF9D0013D08D003F01FFF0028B7
:10273400E2D10021422002F047FDDDE73570ECE7ED
:102744002F0C002030B5406801F01F04057BB2F562
:10275400001F85B044EA451405D1204601F084FAEF
:10276400002005B030BD0025B2F5800FCDE902553B
:1027740014D1B3F1007F0CBF042305238DF8083076
:1027840000232046194602AA01F0ACF81F4B9842D8
:1027940038D10121204601F021FAE1E7B3F1C06FFD
:1027A40025D0B3F1007F14BF012302238DF8083034
:1027B4008368CB40D907E3D4B2F1A07FE0D1144AB7
:1027C40014486109012908BF024604F01F0380333D
:1027D40052F82330DB07D3D40DF1070529462046F0
:1027E40001F0A8F90C4B984203D00395C8E70323E2
:1027F400DCE7284601F0ECF9044B9842F5D06FF081
:102804000B00AEE76FF01500ABE700BF0000AD0BA7
:1028140000258450002884500400AD0B10B501F04D
:10282400C7F9044668B901F09BF9084B98420AD1EC
:102834002146074801F078F9224605210D20FFF7CB
:102844007BF9002010BD6FF00400FBE70000AD0B26
:10285400592800004209034670B502D0012A17D056
:1028640070BD0D4E326951680029F9D0012503F07D
:102874001F030C689D400029F2D08A682A4002D0C8
:1028840030464B6898472CB1236821461C46F2E732
:10289400024EE7E72346F8E7E4670000CC67000050
:1028A4002DE9FF41476801F01F053B7B144645EACB
:1028B40043150E4628460DF1030101F03BF914F4CB
:1028C400403F80460BD1284601F0F6F93C4B984531
:1028D40003D19DF8030001F075F900200CE00023FA
:1028E4002846194602AACDE9023300F0FBFF344B17
:1028F400984204D06FF0150004B0BDE8F081804523
:1029040003D19DF8030001F05DF9A30349D540F21A
:1029140006332340B3F5837F19D00CD8062B17D088
:1029240004D8ABB1022BE5D1042311E0B3F5807FC9
:10293400E0D101230CE040F20222934226D0B3F509
:10294400407F25D0B3F5007FD4D1022300E00723D4
:102954008DF8043084F48033C3F30043E0068DF82B
:1029640005304CBF0323C4F3401321038DF8063014
:1029740010D501237A68B34093600022284601A948
:1029840001F05EF80E4B9842A7D0B3E70523DFE7CA
:102994000323DDE7620341BF01237A68B340D360B8
:1029A400EBE7E3064FF000034CBF0324C4F34014E9
:1029B4001A46284601A98DF8044000F093FFE1E788
:1029C4000000AD0B38B544680569E3699847206A8F
:1029D40003F07FFA00280DDB2B462046074A04F15A
:1029E400080101F069FA064B984204D1204601F02F
:1029F40001FB002038BD6FF00400FBE7452A00000E
:102A04000000AD0B70B5446823682046D3F8085520
:102A1400D3F80C6501F0FEFA3146284601F074FD46
:102A24000546206A03F055FA204601F0E3FA034B09
:102A34009D4214BF6FF00F00002070BD0000AD0B6D
:102A44000378012B08D0022B08D04BB9054B0B623D
:102A540001F1100002F0AEB8034BF8E7034BF6E7C0
:102A6400034BF4E70000AD0B0100AE0B0200AE0B0C
:102A74000100AD0B2DE9F04F934614221D46D0F80A
:102A840004A08BB00669BAF8183081460C460DEBE9
:102A940002000021D6F82480029303F002F98DF895
:102AA40015504FF0FF324FF0FF33304602F0A2F8DA
:102AB40006F11003019300270022002306F1100001
:102AC40002F098F83D465F4501D3002468E0207A7F
:102AD400020700F1898001375F450AD2830708D4D1
:102AE400237D80EA030202F0010203F004031A4387
:102AF4001AD0DDB100236268DDF808C0A918614569
:102B040075D8C10706D4216808EB0500039303F0C8
:102B1400BDF8039B62682A4495B2002B4FD14DB196
:102B24002B46CDF8208009E00123E4E7C007D4E96F
:102B340000121BD50025236808936368227A069344
:102B440002F0010382F00202C2F340025046520135
:102B540005A98DF8143001F07BFA284B984213D064
:102B64000B3398421AD16FF00F0419E001F060435F
:102B7400B3F1005FDED0BAF81A3093423AD340463C
:102B840003F084F8A588CAE74FF480420023019833
:102B940002F030F858B14846FFF734FF6FF00404F0
:102BA400304602F007F820460BB0BDE8F08F336AD8
:102BB400124A9342F2D1237ADB0702D400250C3463
:102BC40081E7089B9845F9D1234608E0A91AD868FB
:102BD4008DB218FA81F1039303F058F8039B5A68F5
:102BE4000C3B9542F2D2E9E76FF08504D8E76FF029
:102BF4001B04D5E76FF01504D2E700BF0000AD0B4E
:102C04004FF0010C2DE9F0474E4E4F4F00EB810180
:102C1400814202D10020BDE8F087056805F07F03FA
:102C2400C5F343247F2B4FEA154508BF4FF0FF330C
:102C3400192D00F28380DFE805F00D1E2326293CC0
:102C44002681818181406D81818181818181818120
:102C540070787B7EC2F80C354FEA5318B8F1010F37
:102C640014BFB646BE4603F01F050CFA05F5CEF8B0
:102C74000850012502E0C2F814350025AE4623E0D1
:102C8400C2F80835E8E7C2F81035F6E70025C2F8BF
:102C940008354FEA5319B9F1010F14BFB046B846CD
:102CA40003F01F0E0CFA0EFEC8F80CE04FF0010EF4
:102CB4000AE0C2F80C350125EBE7C2F80835002C10
:102CC400DBD100250624AE4650F804AB03F01F09FF
:102CD4000AF40058B8F1000F4FEA53131CBF012542
:102CE4004FF0000E012B0CBFB846B04608EB890824
:102CF400D8F80032CAF3C11A03F0E049230243EAC8
:102D04008A0343EA0E0343EA450343EA0903C8F886
:102D140000327DE7C2F80C35D1E7C2F860350568AA
:102D2400C5F38035002DC6D096E7C2F86435F6E7C2
:102D3400C2F86835F3E7C2F86C35F0E76FF0850048
:102D440069E700BF0025845000288450F0B54B7912
:102D5400012B29D0032B24D110278B79032B20D1CD
:102D6400CE790EB1012E1CD10A79012A1ED0022A75
:102D740020D0B2B914460B684568B3F5164FD5F8A0
:102D840000C06ED033D8B3F5165F6DD01CD8B3F540
:102D9400966F6BD010D8B3F5967F6AD0B3F5167FD3
:102DA4006AD06FF085005BE00027D6E74FF48074AB
:102DB4000E22E0E70024FBE7B3F5166F5FD0B3F50E
:102DC400965FEED1384B3CE0B3F5E14F5AD007D8CB
:102DD400B3F5615F58D0B3F5964FE2D1334B30E091
:102DE40047F61225AB42DCD14FF4000329E0B3F5DA
:102DF400613F4BD013D8B3F5963F4AD009D84DF66E
:102E0400C025AB4247D0B3F5614FCAD14FF46B0331
:102E140017E0B3F5E13FC4D14FF0EB7311E0B3F524
:102E2400612F3BD008D8224DAB423AD0B3F5E12F05
:102E3400B7D14FF0E86304E01E4DAB42B1D14FF07F
:102E440080530569CCF8243543683A431B683443FE
:102E54002243C3F86C252B1D03C983E8030000201B
:102E6400F0BD4FF41D03ECE7134BEAE74FF49E2348
:102E7400E7E74FF4A033E4E74FF41C33E1E74FF402
:102E84001D23DEE70D4BDCE70D4BDAE74FF06C73E7
:102E9400D7E70C4BD5E74FF46503D2E74FF07063E7
:102EA400CFE74FF08063CCE700B0130000A04E00E2
:102EB40090D0030040420F000050270000C075006E
:102EC40000F03A0000903A012DE9F74380460022D1
:102ED40001210820FEF730FE0820FEF7FDFD002149
:102EE400D8F80470D8F810603C6801AAC4F800153A
:102EF400C6F80080D7F80C90484602F0FAFF051E89
:102F04004DDB019BD9F8002019791868FFF778FE8A
:102F1400051E44DB4046311DFFF718FF0546002817
:102F24003DD17B68990713D506F1180000F054FCD5
:102F34001E4B984237D1337E43F00043C4F8A0318E
:102F4400C4F88C300123327E9340194AC2F8043508
:102F54000823C4F800353B7A53B9C4F81031D4F8C7
:102F640010317369C4F834350123C4F8383523604B
:102F74007B689A075CBF4FF48073C4F804337B68A2
:102F8400DB0644BF4FF48003C4F804333369C4F848
:102F940044350023C4F848350123A360E360284680
:102FA40003B0BDE8F0836FF00405F8E70000AD0B53
:102FB40000700150F8B504460D46076903F0D6FACF
:102FC400B0B92E4B1B789BB16426606802F0C7FF32
:102FD40000BB012003F02DF8013EF6D10021212091
:102FE40002F0F2F8F0E786F31188BFF36F8FF5E78C
:102FF4004FF02003EFF3118683F31288BFF36F8F32
:103004006068314602F0ABFF90B986F31188BFF3D4
:103014006F8FEDE74FF02003EFF3118683F31288EF
:10302400BFF36F8F6068314602F099FF0028DAD051
:103034003B691D70626838691368C3F84405012050
:10304400C3F848050020C3F82001D3F82051C3F881
:1030540058015268D3F85801D20608D5082062688E
:103064001268C2F800054FF48002C3F80423012259
:103074009A6081F31188BFF36F8FF8BD521000205E
:103084000123834070B5DC430B4AD2E8EF1F01EA09
:103094000405C2E8E65F002EF7D14FF48032824087
:1030A4000648C0F80823BFF35F8FBFF36F8F0B424E
:1030B40014BF0120002070BD3409002000500150CD
:1030C40070B40E4922F07F46D1E90034D01AC318F7
:1030D40044F10004C1E90034A6F50013B3F5400F30
:1030E40009D2074B1B681A0A1B069C19054B42F1AF
:1030F4000005C3E9004570BC02F0BCB9C80100205A
:1031040038090020D0010020D9B101230D4A8340A1
:10311400D2E8EFCF4CEA030CC2E8E1CF0029F7D1A3
:103124004FF48033084A8340C2F80433074BD3E892
:10313400AF3FC340DB0742BF4FF40012044BC3F858
:10314400002170473409002000500150300900204C
:1031540000E100E00D4B1868010A0006BFF35F8F21
:103164000B4BD3F80435181841F10001B3F5801F57
:103174000AD2084BD3E90023904271EB030303D234
:1031840010F1807041F10001704700BF3809002040
:1031940000500150D00100202DE9F74F16461F467C
:1031A4000446FFF76DFF0090FFF7D4FFB04271EBC8
:1031B400070350D2384B301A67EB0101984271F182
:1031C400000165D2354B03EB0413D3E902239F427C
:1031D40008BF964249D04FF48039314909FA04F9BD
:1031E400204626F07F4BC1F8489302F002FF4FF0CF
:1031F400030A584604F15005AD00ADB205F150255F
:1032040004F5A873274A05F580350193DDF804C059
:1032140020F07F4341F82C30C1F84493D1F8048561
:10322400A0EB0800033820F07F4090421DD92868A5
:1032340060B1D1F80485A8EB0B0020F07F40B0F515
:10324400000F12D9204602F0D4FE164A0AEB0800F9
:103254000AF1010ADAE70123134AA340D2E8EF0F87
:103264001843C2E8E10F0029F8D100250B490C9856
:10327400230101EB0412C850C2E902670D9B53609D
:1032840020460099FFF740FF284603B0BDE8F08FC1
:103294006FF01505F4E700BF01008000B8010020BD
:1032A40000500150FDFF7F003009002073B5002558
:1032B4004FF0FF304FF0FF31184C194B0226C4F881
:1032C4000833C4F84833174BC4F80855C3E902015E
:1032D4004FF480334FF40012C4F80433124B01212D
:1032E400C4F804631520C3F880212A46FEF724FCA1
:1032F4001520FEF7F1FB01230C4AA3602360136041
:103304000B4B0C4A0093284600230195FFF744FF1A
:103314003046FFF761F9284602B070BD00500150F5
:1033240003000F00B801002000E100E03409002090
:10333400C5300000FFFF7F002DE9F7432E4BD3F883
:10334400042390070BD5D3F8042142B10022C3F81B
:1033540004212A4AD3F80431136801331360264A3E
:10336400D2F80433D90327D5254BD3E8EF1F21F036
:103374000100C3E8E40F002CF7D1CB0702D4D2F844
:103384004031CBB100251C4CC4F84051D4F8403135
:10339400FFF7E0FE4FF02003EFF3118283F312886E
:1033A400BFF36F8F174BD3E90267B042B94106D21E
:1033B40082F31188BFF36F8F03B0BDE8F0834FF041
:1033C400FF38D3E900104FF0FF391D60C3E90289CB
:1033D4004FF48033C4F84833C4F84051D4F8403132
:1033E40082F31188BFF36F8F0029E5D00090324635
:1033F4003B4628468847DFE7005001503809002043
:1034040030090020B8010020431C13B521D0012845
:1034140021DD124A124B9042D4BF04461C46FFF7EA
:1034240099FE104B0E49D3E90023801AB0F5000F22
:1034340028BF002404448C4228BF0C4600200A49BB
:10344400A2180190009143F10003FFF7A5FE02B01A
:1034540010BD034CE3E70124E1E700BFFEFF7F005A
:10346400FFFF7F00C8010020C530000008B5FFF74A
:1034740071FE024B1B68C01A08BD00BFC8010020C2
:10348400012310B5074C15206360FEF733FB4FF49E
:103494000012054BC4F80833C4F84833034BC3F88F
:1034A400802110BD0050015003000F0000E100E036
:1034B4004FF47F03D3F83021D3F83431072A05D1F0
:1034C400023B032B02D8024AD05C704700207047AD
:1034D4000C6F000008B5FFF7EBFF58B1644BD3F84D
:1034E400202A3AB90D21C3F8201A0121C3F81C1966
:1034F400C3F81C290022D30003F57F03D3F800137B
:10350400013107D0D3F800130132D3F80433202A51
:103514000B60F0D1FFF7CCFF002840F0A080FFF74C
:10352400C7FF40B1534B544AC3F830254FF05023E2
:103534000122C3F858254FF47F03D3F83021D3F880
:103544003431072A09D1023B032B06D84B4AD35CFA
:103554001BB100224A4BC3F84C25FFF7A9FF50B119
:103564004FF05023D3F80024D10742BF0022C3F800
:103574001421C3F818214FF47F03D3F83021D3F872
:103584003431072A09D14FF05023D3F80024D2074D
:1035940044BF6FF00102C3F80024FFF789FF18B19C
:1035A4006522334BC3F80C274FF47F03D3F8302143
:1035B400D3F83431072A16D1314BD3F82034002BF9
:1035C40011DA4FF050230322C3F8182501229A6020
:1035D400D3F80421002AFBD00022C3F804210122DD
:1035E400DA60C3F818254FF47F03D3F83021D3F8F9
:1035F4003431072A23D1023B032B02D8214AD35C5E
:10360400EBB17E221A4B1B49C3F80C27C3F83C29A3
:103614007F231D4AC2F818310023C1F8043EC1F8C3
:10362400083E01F54821C1F81031C2F82431C2F82E
:103634002C3102F5FF1202F58052C2F8A032134A6F
:10364400D2F88C3043F44063C2F88C30104A114BEA
:103654001168C3F84415D269C3F84C2508BD292262
:10366400034BC3F80C270322C3F83C2757E700BFDA
:1036740000400050009003504400EFBE086F00006B
:1036840000200350046F00000020005000ED00E013
:103694000080FF000060005070B501250268B2FA96
:1036A40082F3C3F11F03DBB205FA03F422EA040434
:1036B400D0E8EF6F964204D1C0E8EC4FBCF1000FA4
:1036C400F6D1EBD101480B7070BD00BF0000AD0B0B
:1036D40010B50368CB40DB0710D401238B4002688C
:1036E40043EA0201D0E8EF4F944204D1C0E8EC1F52
:1036F400BCF1000FF6D1F2D1014810BD0148FCE73E
:103704000000AD0B0400AD0B044B1A7922B9012261
:1037140018601A7102487047024870473C0900203B
:103724000000AD0B0C00AD0B4FF0502310B5D3F8D7
:10373400002152B10020C3F80001D3F80021012276
:10374400C3F80823234B1B6898474FF05023D3F842
:1037540004218AB10022C3F80421D3F80421D3F848
:103764001824D3F8181402F00302012A4FF00201BE
:1037740028D1C3F818159A604FF05023D3F82021AC
:1037840062B10022C3F82021D3F820214FF48072C3
:10379400C3F808230F4B04201B6898474FF05023AD
:1037A400D3F82421AAB10022C3F82421D3F8242178
:1037B4004FF40072C3F80823064B0520BDE81040FF
:1037C4001B681847C3F80813024B01201B6898476D
:1037D400D2E710BD3C09002001460148FFF75CBF59
:1037E40074000020036803F01F020260034A0448C7
:1037F4005B09012B18BF1046704700BF0025845099
:1038040000288450034B083033F81000C0F34010F4
:10381400704700BF7800002070B50D4C00F108031C
:1038240034F813300546DA050E4607D5C3F34323AF
:1038340004EBC302526854F833309847A3682BB1A1
:1038440031462846E268BDE87040184770BD00BFA5
:103854007800002010B4124A083032F81030D9052C
:103864001BD5C3F3432123F4F85322F8103000206E
:1038740002F10E0434F8023F13F4807F03D0C3F343
:103884004323994209D001303028F3D1002342F870
:103894003130044810BCFFF71BBF10BC704700BF99
:1038A40078000020EC00002038B50246FFF7AAFF9C
:1038B4000B4C02F1080560B1002134F815305B0BA4
:1038C4009B0003F1A04303F55043C3F81015C3F85C
:1038D40010151046FFF7BEFF002324F8153038BD3D
:1038E400780000202DE9FF41044690461D4601B3AF
:1038F4004F4E00F1080736F817309B0702D5FFF743
:1039040081FF28BB00232046CDE900338DF80E301B
:103914008DF80F300DF10F020B460DF10E0102F080
:10392400C0FC36F8173023F0020343F0010326F8F5
:103934001730B8F1000F2DD03D4E04F1080736F8CA
:10394400171098F800008A07D8F8043002D5CBB1D4
:10395400384821E021F02001C904C90C26F81710C9
:1039640083B10328F4D8D8F8043093F800C0624631
:10397400920002F1A04202F5504280B9C2F810054B
:10398400C2F8100536F8173023F01C0343EA80030D
:1039940026F817301DBB284804B0BDE8F081D2F8E2
:1039A400103541EA4C3123F00303C2F81035D2F844
:1039B400103541F0200123F44F3323F44073C2F84F
:1039C40010352302D2F810E503F47C5343EA004394
:1039D40043EA0E03C2F8103526F81710D2E7204642
:1039E400D5E90067FFF736FF002ED4D0104DD5E996
:1039F4000023964201D19F4218D010480DF10F01C7
:103A0400FFF74AFE0C4B9842C6D19DF80F2005EBF8
:103A1400C20308345F6035F8143045F8326043EA75
:103A2400422343F4807325F81430B4E70022EEE710
:103A3400780000200400AD0B0000AD0BEC0000206A
:103A4400F0B50446154685B019B3344E00F10807A5
:103A540036F81720930703D4FFF7D4FE00285AD171
:103A640012F01C0F02D04B78012B54D001238DF897
:103A74000F3000234A1CCDE9001320468B1C0DF1A6
:103A84000F0102F00EFC36F8173043F0030326F85A
:103A9400173015B9224805B0F0BD204E04F10807CF
:103AA40036F81700830736D595F800C00023614621
:103AB40020F02000890001F1A041C00401F550412B
:103AC400C00CC1F8103526F81700C1F810356A7813
:103AD400002ADFD0D1F81035AD7823F4991323F4FC
:103AE400F853C1F81035D1F810E5230203F47C53E0
:103AF400120402F4403243EA0E0313432A0502F48B
:103B0400801240EA4C30134340F02000C1F81035D5
:103B140026F81700BEE70348BDE700BF7800002081
:103B24000000AD0B0400AD0B014BC3E9020170476B
:103B34007800002008B50246FFF764FE38B1054B53
:103B4400083233F8123004485B0B0B7008BD03488D
:103B5400FCE700BF780000200000AD0B0400AD0BB3
:103B640038B50F4C94F87850BDB96022294604F159
:103B7400100002F096F80D20FDF7AEFF094B0A483D
:103B8400C3F87C51D3F87C214FF00042C3F80423DE
:103B9400012384F87830636738BD0448FCE700BF2C
:103BA4007800002000D000500000AD0B0500AD0BE4
:103BB400034B93F87800003818BF0120704700BF0A
:103BC4007800002001460148FFF782BDE80000208C
:103BD40001460148FFF760BDE800002037B5044600
:103BE400FFF710FE1E4B04F1080233F81230E8B15F
:103BF40013F002051AD15B0B9A0002F1A04000F504
:103C0400514002F1A042056002F550420068D2F82A
:103C1400100540F00100C2F8100529B1012202FA92
:103C240003F3104AC2F8043303B030BDC3F3820374
:103C3400042B11D0052B11D001A80194FFF7D2FD5C
:103C4400019B0169D94001F001010231204603B012
:103C5400BDE8304002F06EBB0321F7E70221F5E72F
:103C64007800002000D0005008B50246FFF7CAFDD6
:103C7400C0B10F4B02F1080133F81130990711D488
:103C840001225B0B9A400B499B0003F1A043C1F84E
:103C9400082303F55043D3F8102522F00302C3F898
:103CA400102508BD0021BDE80840104602F042BBC3
:103CB4007800002000D0005013B5104B00F108022A
:103CC40033F812300446DB0716D5FFF7CDFF204644
:103CD400FFF7EAFD01A80194FFF784FD019B00EBC7
:103CE4008300D0F8003203F0E04343F00203C0F84D
:103CF4000032034802B010BD0248FBE77800002000
:103D04000000AD0B0400AD0B2DE9F04F002601229D
:103D14003446634B6348644987B01D6835B1D0F8B5
:103D2400045315421EBF1C601D68164304338B42A6
:103D34004FEA4202F1D1DFF86CA1DAF87C31002BB2
:103D440000F09180DFF86481D8F820300493C8F83B
:103D54002030574B1A6A05921A624FF000090DF190
:103D6400100B4FEA4913009348E094FAA4F4B4FA10
:103D740084F4009B4F4A1C4404F1080332F8137086
:103D84000123E00804F0070203FA02F21BF80030F2
:103D9400039423EA02030BF8003003A8FFF722FD83
:103DA400039BB908803350F82330C7F382054A07D0
:103DB4002F46C3F301432BD520463946DDB2FFF726
:103DC4002BFD03A80394FFF70DFD039B803350F8EC
:103DD4002330C3F301439D4207D10021204602F062
:103DE400A9FA2946204602F0A5FA03A80394FFF78E
:103DF400F9FC0122039B02FA03F303625BF82940F6
:103E0400002CB2D1B9F1000F1DD14FF00109A8E780
:103E1400022B0CD10321204602F08CFA05F0050395
:103E2400012BE2D139462046FFF7F6FCDDE70221FB
:103E34002046019302F07EFA032DF3D0019B032B5D
:103E4400D3D1022DEDE7CAF87C41DAF87C31D8F8F9
:103E5400203017490493C8F820300A6A13430592A6
:103E64000A627FF47AAF012416B907B0BDE8F08F77
:103E740096FAA6F3B3FA83F304FA03F29B0003F170
:103E8400A04303F55043D3F81005D3F81015C0F33D
:103E94000520C1F3014126EA0206FFF7BDFCE3E772
:103EA40000D1005000D0005020D100500025845093
:103EB40000288450780000204FF0340C2DE9F8439A
:103EC4000679464D0CFB06FC05EB0C049E4694F863
:103ED4002D30002B7DD10768A36045F80C20C4F871
:103EE40004E084F8303084F82F304B7B84F832308F
:103EF40091F80EC084F833C08B68BCF1000F1CD05D
:103F0400CC7B44B9B3F17F6F4DD2D1E90043C7F8FC
:103F14000845C7F80C358B68C7F8243522B100680A
:103F240040F30730FDF7D8FD342303FB0655012386
:103F34002B4885F82D30BDE8F883B3F17F6F45D366
:103F44000B68222B39D14B68232B44D14FF00B0C37
:103F54000C68244BDFF8908004F01F096409012CDD
:103F64000CBF9E46C6460EEB890EDEF800424FEAB1
:103F74000C2C4CF00C0C04F0E04444EA0C04CEF895
:103F840000424C6804F01F0E6409012C18BF43461C
:103F940003EB8E03D3F8004204F0E04444EA0C043B
:103FA400C3F8004205E00B68222B06D14B68232B93
:103FB40011D1CB7B002BAED1A7E7232B0BD14B68C0
:103FC400222B08D1BCF1000FF3D1BFE74FF0060C50
:103FD400BEE70648AFE70648ADE700BF4409002046
:103FE4000000AD0B00288450002584500500AD0B63
:103FF4000400AD0B062103680279C3F800153421CF
:10400400034B01FB0233022283F82D20704700BFCB
:10401400440900200179026834200B4B00FB013372
:1040240000210A489960C2F80803D2F8000220F47B
:10403400BC50C2F80002C2F80015012283F82F1008
:1040440083F82D20704700BF4409002002029C0120
:1040540034232DE9F0471746002290F804E0DFF8F6
:10406400E4C2046803FB0EC383F82E204B680D469C
:104074004BB1CB6803F06043B3F1005F03D0B24EA1
:104084003046BDE8F087342606FB0EC6AF4BC4F8B5
:10409400083396F82F3003F0FF0A23B1B368AC4E0F
:1040A400C4F80433ECE717F0140F0CBF012300230A
:1040B400A94686F82F3006F10C08B9E80F00A8E8E5
:1040C4000F00D9F800303762C8F80030C7F3001386
:1040D40086F830306B78C4F88835C4F804A1D4F875
:1040E4000431C4F824A1D4F82431C4F860A1D4F86C
:1040F4006031C4F848A1D4F8483117F0010318BF5F
:104104000123C4F8503517F0020318BF0123C4F883
:1041140040352B78032B00F2B980DFE803F08BA441
:104124006D022B6903F06043B3F1005FA7D14FF434
:104134008073C4F800326B68EA68C4F84425C4F894
:1041440048350023C4F85031D4F8502101222262AA
:10415400A260D4F85021002AFBD0C4F85031D4F81E
:1041640050312A69AB68C4F84425C4F8483534236F
:104174004FF4802203FB0EC39A600823754E380760
:1041840007D42A78032A04D00122E2506B6803B9C9
:104194006261342303FB0EF35CF803100CEB03029F
:1041A400002976D10120D4F84831002B00F0898011
:1041B400D4F80431002B40F08780D4F82431002B4C
:1041C40000F095800123C4F82411D4F82421D4F8F4
:1041D4006051D4F80022002D00F0818012F4007F99
:1041E40002F480727ED120626061002ADBD0C4F8C0
:1041F4004811D4F84831D6E76B68EA68C4F8442516
:10420400C4F848352B6903F06042B2F1005F7FF4D3
:1042140036AFAA68C4F834354FF48453C4F838254B
:10422400C4F800323423022203FB0EC39A60012334
:104234002362A2E76B68EA6817F0200FC4F84425EC
:10424400C4F848354FF0340308D04FF4807203FBB0
:104254000EC3C4F800224FF48022E7E74FF4007243
:10426400C4F80022DFE76B68EA68C4F83425C4F8B0
:1042740038354FF48053C4F800323423022203FB50
:104284000EC39A6001232362002377E70823324E8A
:1042940075E7790744BF002393607A0606D4342374
:1042A40003FB0EC39A6842F002029A60342303FBB4
:1042B4000EC39A6842F400729A609B68C4F804338F
:1042C400DEE6D4F8043123B1C4F80411D4F804317F
:1042D40073E7D4F82421002A3FF465AF73E7206222
:1042E400606160E7002A82D1002B3FF45CAF342187
:1042F400002001FB0EC2D4F8C434C4F8C43482F8DC
:104304002F008BB1154A13F0010F154E18BF164636
:1043140013F0020F02F1010218BF164613F0040F46
:10432400104B18BF1E46ABE67B063FF5A9AE2046F0
:104334000EFB01C102F00DF8094B002808BF1E4610
:104344009EE600BF440900200A00AD0B02029C0156
:104354000B00AD0B0000AD0B0400AD0B0000AE0B69
:104364000100AD0B0200AE0BF0B55A4D5A4CD5F816
:10437400243187B0FBB10023C5F82431D5F82431AA
:10438400D5F80431BBB9A368C5F808330223A36088
:10439400A368C5F80433D5F860311BB1D5F80032F1
:1043A4009E0503D401224B4B1A625A61012384F8FF
:1043B4002E3007B0F0BDD5F80431002B5AD00023BD
:1043C400C5F80431276AD5F804317D060AD494F877
:1043D4002E303BB940493F4801F0BBFF80F001005B
:1043E40084F82E0017F0040794F830C020D13B4E17
:1043F40001AD0FCE0FC533682B60364BC3F8607127
:10440400D3F86021C3F85C71D3F85C21BCF1000FD0
:1044140002D094F82E205AB10022C3F80022A260E0
:104424002F4AC3F808234FF400722E4BC3F880219F
:10443400284AD2F8C4349807C2F8C43443D459077C
:1044440043D4DA0743D494F82E309B00DBB28DF8C2
:10445400003094F830300BB984F82F30236A5B07AE
:1044640003D594F82E30002BA3D0D4E9003168464C
:1044740098479EE7C5F84831D5F84831237B83B97E
:10448400164F01AE0FCF0FC63B68336094F830303F
:10449400002BCDD1C5F80032A360114BC5F8083309
:1044A400C1E74FF40073C5F8003240F20223A36061
:1044B40003F1CE73C5F80833A368C5F804330123A8
:1044C400AB602B6275E70123C1E70223BFE7032337
:1044D400BDE700BF009000504409002050090020AF
:1044E40002029C0100E100E0036803F01F02026085
:1044F400034A04485B09012B18BF1046704700BFEC
:104504000025845000288450F7B5064601F051FF79
:10451400084601F04EFF01A80196FFF7E5FF0C469F
:1045240040F20D61019B019400EB8300D0F800324E
:10453400092503F0E0430B43C0F8003201A8FFF75C
:10454400D3FF019B012700EB8300D0F8003203F076
:10455400E0430B43C0F80032042001F06AFD01A8D7
:104564000194FFF7C1FF019A0369D340DB0714D418
:1045740001A80196FFF7B8FF019B013D07FA03F379
:10458400C360042001F055FD304601F012FF042001
:1045940001F04FFD15F0FF05E1D101A80194FFF7EB
:1045A400A3FF0123019A9340C360042001F041FD5D
:1045B400204601F0FEFE042001F03BFD01A8019419
:1045C400FFF792FF019A03690348D34003F0010304
:1045D400C01A03B0F0BD00BF0100AD0B032310B53A
:1045E400134C144A23616361134BA261E3614FF4DA
:1045F400806323620023A3626362E36222660F4A3C
:104604000F4962661022E01DA2662367E3666367B2
:1046140001F022FBBFF35F8F0A49204601F01CFB27
:10462400BFF35F8F2023A371BFF35F8F10BD00BF63
:10463400780900203B6F0000520C0020420C00203F
:10464400446F0000486F0000F8B5182700FB077599
:10465400124B0E461D4407FB0033DB6A1446012B44
:104664000AD0022B14D023B9284601F0AEFE8442AE
:1046740008D900242046F8BD284601F0A6FE84424D
:1046840028BF044622463146284601F0A7FEF1E73A
:104694002846BDE8F84001F0BEBE00BF78090020FE
:1046A400104B70B553F82040013053F82060A642F7
:1046B40000D870BDD4E900358DB12846984738B18B
:1046C4000028B8BF4042FF28A8BFFF20EB6818703D
:1046D400EA68537843F0010353700834E7E79847D6
:1046E400FBE700BF986C0000012208B5094B0320CA
:1046F4001A70FFF7D5FF00F041FF0420FFF7D0FF49
:1047040000F02AF9FBF714FF034A137B23F001039B
:10471400137308BD521000205802002008B5034846
:10472400034A0021121A01F0D0FE08BDB80100208E
:10473400541000200023012270B586B0CDE9042373
:104744000F220193CDE9023214234FF4A0720E4DCF
:104754000E4E03FB00550E4906EBC016044602FB41
:1047640000110C4B3046009500F0C6F8737B2C7496
:1047740023F004037373084B013403EBC423EE608A
:104784006B6006B070BD00BF200A0020D801002075
:1047940058180020154A00005810002080B5002049
:1047A400A6B0FFF77DFF2D4B03F5006282F3088866
:1047B40083F30A880024E023294D2A4E85F8223009
:1047C400EC772C766C76AC7685F820406B6A264FB5
:1047D40043F4E0236B6285F82340FDF7C3FBFDF748
:1047E4004FF94FF0FF33AB62EB62FDF7C5FDFDF708
:1047F4006BFC40F20113ADF8243006ABB360CDE995
:104804001F44229401F03AFE0120FFF749FF0220E1
:10481400164DFFF745FF00F04DFC154BB5610593B0
:10482400012314494FF48062CDE9034328463B46F3
:10483400CDE90144009400F05FF806466A7B2846FF
:1048440022F004026A7301F0E7FE2046FFF772FFCC
:104854003A4631462846FDF717FA00BF58100020A3
:1048640000ED00E0200A0020ED4600005802002080
:104874004F6F000098190020002038B5054C064DF4
:10488400AC4200D338BD204601F023FE0028F9DBFA
:104894001C34F5E7660100206601002073B50C4660
:1048A4004FF02005EFF3118185F31288BFF36F8F6A
:1048B40045695DB125602B68436183690133836178
:1048C400002081F31188BFF36F8F11E052EA0306D1
:1048D40003D16FF00B002560F3E7CDE90023024616
:1048E400083000F0F1FA18B9024B9B685B69236049
:1048F40002B070BD200A00202DE9FF410E9E00F198
:10490400580506730426C0E9165500250446467367
:104914000D9EC0E906558673D61D0C9A26F007062F
:10492400C0E919168560C573C56602920B9A01EB3E
:10493400060801920A9A00924246FDF789F9054B4E
:1049440065659B6803B11B6F4046236704B0BDE8EF
:10495400F08100BF200A00202DE9F043294C2A4DA4
:1049640087B02646AE4204F12C040FD300F072FB4C
:104974004FF4004640F2E737224CDFF89090AC4207
:1049840020D307B0BDE8F04300F078BB54F8043CF2
:10499400059354F80C3C049354F8103C039354F8D6
:1049A400143C029354F8183C019354F81C3C0093B3
:1049B40054E9092354E90B01FFF79EFF54F82C3CFA
:1049C4005E65CEE7636A5A1C0DD00021384623EA9F
:1049D400E373C3FB060151EAC333D4F8008004D166
:1049E400404600F0E7FA2C34C9E74FF47A7200230A
:1049F400FBF7AEFB02460B4608F11800494600F0EF
:104A0400C3FCF0E7546A0000546A000081660000A9
:104A140008B50B4C0B4D4FF02002EFF3118382F3DA
:104A24001288BFF36F8F01F075FE2B78606113B9A4
:104A3400FDF72CF8EFE7FCF75DFE0028EBD1F7E774
:104A4400200A0020521000202DE9F34104461746A5
:104A54001E464FF02003EFF3118883F31288BFF34F
:104A64006F8FC368334A7BB180689168884219D0DC
:104A740057EA060318D188F31188BFF36F8F6FF0DC
:104A84000F0002B0BDE8F081916891F90E10013376
:104A9400E36093682161A36088F31188BFF36F8F8B
:104AA4000020EEE72169F2E791F90E1090F90E303B
:104AB4006FF07E029942A8BF19469142B8BF1146D1
:104AC4008B422EDD01F05FFD054622464146CDE9CD
:104AD4000076194800F0F8F90028E1D04FF02003DF
:104AE400EFF3118683F31288BFF36F8FA068D0B100
:104AF400236821699C420AD04BB193F90E30994244
:104B0400A8BF19466FF07E039942B8BF194601F059
:104B14003AFD40B13146084800F03AFA6FF00A0015
:104B2400AFE70025D1E7002DF4D186F31188BFF358
:104B34006F8FF3E7200A00205310002038B58368F4
:104B440004466BB3194A926893422CD1C368012B73
:104B540003D9013BC360002038BD4FF02003EFF3BD
:104B6400118583F31288BFF36F8F0169806801F0A8
:104B74000AFD204601F086FDA06058B190F90E2090
:104B840022610022826701F047FD2946084800F0AF
:104B9400FFF9E0E7E06085F31188BFF36F8FDAE790
:104BA4006FF01500D8E74FF0FF30D5E7200A00205A
:104BB4005310002038B504464FF02003EFF311855D
:104BC40083F31288BFF36F8F01F05CFD48B10022BC
:104BD400826701F021FD2946BDE83840044800F011
:104BE400D7B9D4E902329A4218BF0133A360F2E77D
:104BF4005310002013B54FF02004EFF3118184F318
:104C04001288BFF36F8F846844B1013C846081F3E0
:104C14001188BFF36F8F002002B010BD52EA030465
:104C240006D181F31188BFF36F8F6FF00F00F3E7A4
:104C3400CDE900230246024800F046F9ECE700BF44
:104C440053100020C3897F2B12D80A4B1B6863B111
:104C5400094B90F90E201B689A4209DB437BDB0663
:104C640006D1064BC31A18BF012303F00100704795
:104C74000023FAE74C0A0020480A0020D80100204B
:104C84000122044BC01A044BC0105843034B1A545E
:104C9400704700BFD8020020ABAAAAAA5310002074
:104CA40070B50E4B0E4C1E7C054606EB460304EB1A
:104CB400C304204601F018FD00220A4B28469A55E9
:104CC400FFF7C0FF48B1084B2046BDE870401A68A2
:104CD4000649013AD31700F057BB70BD200A0020E3
:104CE400D8020020531000204C0A0020854C0000FC
:104CF40038B50D4D2B4653F81C4F9C4200D004B9D7
:104D0400EC68AB6838B95A7BD20604D1A26912B9EF
:104D1400DA897F2A05D89C4202D02046FFF7C0FFDB
:104D24002346AB6138BD00BF200A002070B590F95E
:104D34000D200146002A437B04DA03F07F0343730A
:104D440001F030FC154A4B7B104663F07F034B7334
:104D540050F81C3F146A834208BF002323B9C1E9F9
:104D64000004216011620CE091F90E5093F90E6079
:104D7400B5420ED0AE420CDD5868C1E90030016086
:104D840059609068BDE87040431A58425841FFF793
:104D9400AFBF9C42E3D01B68E0E700BF200A0020BD
:104DA40070B490F90D30427B002B29DBD30627D158
:104DB40083692BBB134962F07F0242730A4652F89F
:104DC4001C4F944218BF23460C6A23B9C0E900243F
:104DD400206008620CE090F90E5093F90E60B54221
:104DE4000AD0AE4208DD5A68C0E90032106058604B
:104DF400002070BCFFF77CBFA342E7D01B68E4E748
:104E040070BC7047200A002008B590F90D200146B7
:104E1400002A437B04DA03F07F03437301F0C2FBEF
:104E2400044B9868431A58425841BDE80840FFF7BC
:104E34005FBF00BF200A002070B515461C46064619
:104E440001F0C2FBB4F1FF3F08BFB5F1FF3F08D04A
:104E54002A46234606F118000249BDE8704000F0D6
:104E640093BA70BD8166000038B54FF02003EFF3AC
:104E7400118583F31288BFF36F8F104B104A9C681F
:104E84001068A04206D1FFF70BFF85F31188BFF32A
:104E94006F8F38BD00211B7C11600A4AD35C002B44
:104EA400F3D02046FFF7CEFE0028EED0637BDB066E
:104EB40002D12046FFF73AFF2046E4E7200A00200B
:104EC400440A00205310002070B50C480C4D86682D
:104ED4000C462E601146DDE904234FF02006EFF363
:104EE400118586F31288BFF36F8F8068FFF7A4FFE4
:104EF4002046BDE87040FCF755BE00BF200A0020E4
:104F0400440A0020F8B504464FF02003EFF311865D
:104F140083F31288BFF36F8F437B49B2DA0619D14A
:104F24008569BDB903F07F03437301F03BFB437B09
:104F3400164A63F07F0343731346817353F81C0FBF
:104F4400984218BF0546106A5DB9C4E90030046090
:104F5400146211E00020A17386F31188BFF36F8FF0
:104F6400F8BD95F90E70B9420BD08F4209DD6B681C
:104F7400C4E900531C606C600120FFF7B9FE0120F6
:104F8400EAE7A842E1D02D68DEE700BF200A00204E
:104F940049B9EFF3058030B9054B9A699B689A4289
:104FA40001D0FCF7FFBD81F31188BFF36F8F704709
:104FB400200A002010B54FF02002EFF3118482F391
:104FC4001288BFF36F8F427B510704D484F3118896
:104FD400BFF36F8F10BD22F004024273FFF7E0FEAF
:104FE4002146BDE810400148FFF7D2BF541000200D
:104FF40070B50446183001F077FB4FF02003EFF34F
:10500400118683F31288BFF36F8F94F90D20637BAD
:10501400002A05DA03F07F032046637301F0C2FA25
:105024000B4D637BA86843F010036373031B584262
:105034005841FFF75DFE86F31188BFF36F8FAB68AD
:10504400A34203D1BDE8704001F044BB70BD00BF72
:10505400200A00204FF02003EFF3118183F312881C
:10506400BFF36F8F044B9A68D37B013BD37381F3F7
:105074001188BFF36F8F7047200A002010B54FF0DE
:105084002003EFF3118483F31288BFF36F8F084B6F
:1050940000209A68D37B0133D373FFF729FE84F38E
:1050A4001188BFF36F8FBDE8104001F013BB00BF40
:1050B400200A0020024B03F11C02C3E907227047B7
:1050C400200A0020F8B54FF02003EFF3118583F395
:1050D4001288BFF36F8F19498868437B03F07F03FD
:1050E400437301F05FFA08468B685A7B62F07F02D3
:1050F4005A7350F81C2F0C6A824208BF002222B94E
:10510400C3E9000423600B620CE093F90E6092F98A
:105114000E70BE420ED0B7420CDD5168C3E90021C7
:105124000B6053600120FFF7E3FD2846BDE8F8401B
:10513400FCF738BDA242E3D01268E0E7200A002061
:1051440050EA01032DE9F04105460E4603D1FFF76D
:10515400B9FF00202CE0831C71F1FF332ADB01F03E
:10516400E9FA2C184FF02003EFF3118883F3128827
:10517400BFF36F8F114F124BB8681860FFF744FEEE
:10518400B86810492A463346183000F0FDF8BA686A
:105194004046537B43F010035373FCF703FD01F0C7
:1051A400C9FA201A63EB0303012873F10003D0DB6F
:1051B400BDE8F0816FF00104241AD3E7200A00202F
:1051C400440A002081660000B1F1FF3F08BFB0F13E
:1051D400FF3F08B506D1084B9868FFF709FF4FF069
:1051E400FF3008BDFFF7ACFF4FF47A7380FB030375
:1051F400C00B40EA4340F4E7200A0020014B9868C2
:10520400704700BF200A00202DE9F04104464FF00A
:105214002003EFF3118683F31288BFF36F8F037BB0
:10522400D9070BD586F31188BFF36F8F404080F305
:1052340011884FF0040002DFBDE8F081437B1A07B8
:1052440004D586F31188BFF36F8FF5E723F02002AE
:1052540042F00801D20920D14173A36813B120465A
:1052640001F0A8F904F1180001F03EFA4FF000082B
:1052740004F15807A56DBD4200D0B5B90120FFF770
:1052840037FD104B9B68A342DBD1EFF30583002B62
:10529400D7D13046FCF786FCD3E703F05F0343F035
:1052A4000803437301F07EF9D7E7284601F082F939
:1052B40005F1180001F018FA2846C5F87880FFF7C0
:1052C4006FFDD7E7200A002008B50648064A0749BB
:1052D400121A01F0FCF8BDE80840054A05490648E1
:1052E40001F0F5B800000020B8010020886F00002C
:1052F40000000000886F000000000020034B1B68C2
:105304000BB9FEF7B3B80020704700BF500A002065
:1053140010B50E4B1C689C4204D1FFF7EFFF6FF0F1
:10532400004010BDFFF7EAFF002CF8D0D4E90432A6
:105334001B1A62EBE072B3F1004F72F10001EEDA76
:10534400002AACBF18460020EBE700BFF4000020A1
:1053540030B570B10B4B5B6898420AD0036843B117
:10536400D3E90421D0E90445121941EB0501C3E94D
:105374000421D0E9003213605A600023C0E90033ED
:1053840030BD00BFF4000020B3F1FF3F08BFB2F10D
:10539400FF3FF8B504461D4616465CD081604FF0C9
:1053A4002003EFF3118783F31288BFF36F8F013269
:1053B40075F1FF3324DA6FF001032C49D1E90020A1
:1053C4009B1A4FF0FF3262EB00009E1B60EB05005E
:1053D400012E70F1000301DA01260020C4E9046003
:1053E400234ED6F800C07568B44508BF4FF0000CD2
:1053F400BCF1000F0DD1C4E900652C6074601CE0A1
:10540400FFF77CFF013645F10005361845EBE070E7
:10541400E4E7DCE90420D4E90431934271EB000EA3
:105424001ADAD21ADCF8043060EB0100CCE904206B
:10543400C4E900C31C60CCF804403368B34206D00E
:105444009C4204D1FFF764FF0021FDF7DDFF87F3E1
:105454001188BFF36F8FF8BD9B1A61EB0001AC4557
:10546400C4E90431C7D0DCF800C0C1E7F002002071
:10547400F40000202DE9F84F4FF02003EFF3118CD6
:1054840083F31288BFF36F8FDFF8B0A0DFF8B0901A
:105494000024C9F80000DAF800000025504508BFD0
:1054A4000020284FE046D7E90021D9F8003080B326
:1054B400D0E9046C4FEAE37EB3427EEB0C0B05DAD1
:1054C400F61A6CEB0E04C0E9046422E0B21841EB56
:1054D400E671C0E90445C7E90021FFF739FF88F305
:1054E4001188BFF36F8F836898474FF02003EFF361
:1054F400118883F31288BFF36F8FD9F80030DAF87C
:1055040000009B1B5045C446C9F80030CAD1D7E9F6
:10551400002100249A1841EBE373C7E90023C9F87A
:105524000040FFF7F5FE2146FDF76EFF88F3118872
:10553400BFF36F8FBDE8F84FFFF796BCF40000206F
:10554400500A0020F002002010B54FF02003EFF3C2
:10555400118483F31288BFF36F8FFFF7CFFE0346E6
:10556400054AD2E90001181841EBE37184F311886C
:10557400BFF36F8F10BD00BFF0020020014800F0A0
:10558400A9B900BF576F000010B50A4C23681BB1BE
:1055940001232360002010BD00F0F4F80028F7D0A8
:1055A4000138072803D8044B53F8200010BD0348E2
:1055B40010BD00BF540A0020B06C0000FE8FFFFF36
:1055C400BFF34F8F0549064BCA6802F4E0621343E8
:1055D400CB60BFF34F8F00BFFDE700BF00ED00E0DD
:1055E4000400FA0530B44FF0FE3200250B4B0C4C8E
:1055F4000C494968C3F80024C3F80424C3F80824F8
:10560400C3F80C24C3F81024C3F81424C3F81824D2
:10561400C3F81C24C4F8005530BC0847005084501B
:1056240000408450FC000020024BD0E90012C3E982
:1056340000127047FC00002010B5044650B16368A6
:1056440013F0685F05D0064A934202D000236260DB
:10565400236010BD034B04485B689847EFE700BF25
:105664002C5F5CA9FC000020D06C0000C8B143682A
:105674000D4A934213D013F0685F0ED0012350E813
:10568400002F194640E8001C9CF0000FF7D1012AB6
:10569400F5D0BFF35F8F002070470448704704487B
:1056A40070476FF4E04070472C5F5CA9E98FFFFFFF
:1056B400EA8FFFFF034680B1426809498A420AD053
:1056C40012F0685F05D0BFF35F8F002210461A60A6
:1056D400704704487047044870476FF4E0407047CF
:1056E4002C5F5CA9E98FFFFFEA8FFFFF10B504462A
:1056F40020B10023034A2360626010BD0248FFF713
:1057040071FFF6E73A00003AF86C000070B5194CE6
:10571400D0F804C00668C4F804C0D0F808C0C06853
:10572400C4F808C0E06026600868134B134D186085
:105734004868D5F818215860886812F0685F986046
:10574400C8680969D860196112D000230C4A05F5AC
:105754008A70C5F81431C5F8B831C5F81821C5F8F0
:10576400BC21B047236805F5DC70BDE870401847DC
:1057740070BD00BF18010020040100206C0A002045
:105784002C5F5CA908B500F011F830B900F010F8EE
:1057940038B9054AC2F80C0A08BD00F037F80320EE
:1057A40008BD042008BD00BF00508450002070478D
:1057B40010B5114800F048F800B110BD0F4800F0D2
:1057C40043F80028F9D10E4C204600F03DF800289B
:1057D400F3D10C4B0C481C6000F036F8014600284D
:1057E400EBD100F02DF8044608B1204610BD00F0BE
:1057F4003FF82046FAE700BF58010020540100207A
:1058040050010020480100204C01002008B5084840
:1058140000F024F8074800F021F8074800F01EF8CB
:10582400064800F01BF8BDE8084000F00BB800BFC4
:105834005801002054010020500100204C01002098
:1058440000207047704700BF08B5034B02681B680F
:1058540010689847002008BD1801002008B5034BC4
:1058640002685B6810689847002008BD1801002092
:1058740070B5094C094D2069AB68984718B1084BBD
:1058840008485B6898470021074AEB681160206963
:10589400BDE87040184700BF040100201801002033
:1058A400FC0000201C6D0000680A00200A22B0FBE6
:1058B400F2F302FB130040EA0310C0B2704703097D
:1058C40003EB830300F00F0000EB4300C0B270470A
:1058D400002070470FB407B504A951F8040B0191D7
:1058E400FAF77AFE03B05DF804EB04B0704704469F
:1058F40008B5084611461A46A047FFF77FFCFCF797
:10590400CDFB038B13F0070305D10368002B0CBFF9
:10591400002003207047022B05D1408BB0FA80F0A1
:10592400400980007047012B05D10368002B0CBF90
:105934000020052070470020704710B50C4600B1C8
:1059440011B96FF0150010BD081D00F095F800287E
:10595400F9D1A368032BF6D9F3E72DE9F0410D46FD
:1059640007461946281D90461E4600F096F8044640
:1059740038B13346424629463846A446BDE8F0418C
:105984006047BDE8F08110B44FF02004EFF31182BA
:1059940084F31288BFF36F8F416110BC0121FAF7C1
:1059A40029BE38B50C46054658B151B10B6843B110
:1059B4004B6833B11C22002100F073F900202C61E4
:1059C40038BD6FF01500FBE770B505460E46FFF7CE
:1059D400B4FF041E15DB4FF02003EFF3118283F3B1
:1059E4001288BFF36F8F4FF6FF716B8B2C8B8B423A
:1059F40004F0070407D182F31188BFF36F8F6FF0AF
:105A04000A04204670BD022C0CD101336B8382F34F
:105A14001188BFF36F8F0023224631462846FFF7D3
:105A24009CFFEEE7062C14D8DFE804F004131313EC
:105A3400041A0400002333606B683BB9C5E90066AF
:105A4400ACB902212846FAF7D5FDDAE71E606E608C
:105A5400F6E782F31188BFF36F8F6FF00404D0E789
:105A640082F31188BFF36F8F6FF08504C9E782F367
:105A74001188BFF36F8FC4E7034658B1426802F040
:105A84000302012A03D0032A04D1026812B10020C0
:105A9400986070476FF0150070474268034602F043
:105AA4000302032A4FF00002816014BF104600680D
:105AB4005A607047D0E9002130B54FF03333A2FB70
:105AC4000324D51843EB0405A1FB0313521844EB3C
:105AD4000304521944F10002891843F10003C0E998
